:03000000020800F3
:0C080000787FE4F6D8FD75817A02084785
:10088C0008738040201008040201206608003F48CD
:10089C0088483F00FF9191916E007E8181814200DA
:1008AC00FF8181817E00FF9191918100FF9090905A
:1008BC0080007E8181894600FF101010FF0000002F
:1008CC00FF000000068181FE8000FF182442810099
:1008DC00FF01010101007F807C807F00FF403C0212
:1008EC00FF007E8181817F007F88888870007E81F7
:0308FC00817E01F9
:10095000E4FDFCC3ED9FEC9E5015E4FBFA0BBB00DD
:0F096000010ABA02F8BB58F50DBD00010C80E486
:01096F002265
:10090000E4F56EF56FE4F572E4F56E7473256EF838
:10091000E6F5907408256FF8E6F5A07F017E0012D9
:100920000950056FE56FB46603E4F56F056EE56E7B
:10093000C3940840D685716FE571B46603E4F57120
:100940000572E572C3941440BF057185716F80B55F
:10080C00020900E493A3F8E493A34003F68001F2F9
:10081C0008DFF48029E493A3F85407240CC8C333ED
:10082C00C4540F4420C8834004F456800146F6DFBC
:10083C00E4800B010204081020408090088CE47EB8
:10084C00019360BCA3FF543F30E509541FFEE493B1
:10085C00A360010ECF54C025E060A840B8E493A378
:10086C00FAE493A3F8E493A3C8C582C8CAC583CAA3
:10087C00F0A3C8C582C8CAC583CADFE9DEE780BE5B
:0108FF0000F8
:00000001FF
