:0300000002087C77
:0C087C00787FE4F6D8FD758108020800C2
:10080000E4F5080508E508B403F975A0AA7FC87ED9
:100810000012085C75A0557FC87E0012085CE4F5E4
:10082000080508E508B404F975A0CC7F647E0012C1
:10083000085C75A0337F647E0012085CE4F508054F
:1008400008E508B405F975A0F07F327E0012085C57
:0A08500075A00F7F327E0012085CD5
:02085A0080A478
:10085C00E4FDFCC3ED9FEC9E50070DBD00010C8028
:0F086C00F2E4FFFE0FBF00010EBE04F8BFE2F57D
:01087B00225A
:00000001FF
