:03000000020800F3
:0C080000787FE4F6D8FD758119020847E6
:1008DE00081280402010080402010808003F4888D2
:0408EE00483F00007F
:10088C00E4F510F51174122510F8E6F590740825AE
:10089C0011F8E6F5A07F017E001208BE05100511C7
:1008AC00E510B40803E4F510E511B408D8E4F5112B
:0208BC0080D3E7
:1008BE00E4FDFCC3ED9FEC9E5015E4FBFA0BBB0070
:0F08CE00010ABA02F8BB58F50DBD00010C80E419
:0108DD0022F8
:10080C0002088CE493A3F8E493A34003F68001F26E
:10081C0008DFF48029E493A3F85407240CC8C333ED
:10082C00C4540F4420C8834004F456800146F6DFBC
:10083C00E4800B01020408102040809008DEE47E66
:10084C00019360BCA3FF543F30E509541FFEE493B1
:10085C00A360010ECF54C025E060A840B8E493A378
:10086C00FAE493A3F8E493A3C8C582C8CAC583CAA3
:10087C00F0A3C8C582C8CAC583CADFE9DEE780BE5B
:0108F2000005
:00000001FF
