:03000000020800F3
:0C080000787FE4F6D8FD758112020847ED
:0C08C0000A09F9A4B0999282F88090C057
:10088C00E4F508D280D28175A0C02080111208CD69
:10089C001208E23080FD74092508F8E6F5A02081E5
:1008AC00E91208D81208E23081FD74092508F8E62F
:0408BC00F5A080D64D
:0B08CD000508E508B40A03E4F5082262
:0A08D800E508700375080A150822F0
:0608E200E4FF0FBF0AFC59
:0108E80022ED
:10080C0002088CE493A3F8E493A34003F68001F26E
:10081C0008DFF48029E493A3F85407240CC8C333ED
:10082C00C4540F4420C8834004F456800146F6DFBC
:10083C00E4800B01020408102040809008C0E47E84
:10084C00019360BCA3FF543F30E509541FFEE493B1
:10085C00A360010ECF54C025E060A840B8E493A378
:10086C00FAE493A3F8E493A3C8C582C8CAC583CAA3
:10087C00F0A3C8C582C8CAC583CADFE9DEE780BE5B
:0108CC00002B
:00000001FF
