:030000000208BA39
:0C08BA00787FE4F6D8FD75810A02080082
:0F08AB0057454C434F4D4520544F004554430093
:100800007F0A7E001208371208957F061208DA7BED
:10081000FF7A0879AB1208577F041208E17BFF7A50
:0F0820000879B61208577F2C7E0112083780FE28
:100895007F647E001208377F381208C67F0E120863
:0608A500C67F010208C637
:0A08C6008FA0C29012082FC29222E8
:100857008B088A09890AAB08AA09A90A12087C60C9
:1008670013050AE50A7002050914F912087CFF123C
:0508770008D080E22220
:0708DA00EF2480FF0208C6B5
:0708E100EF24C0FF0208C66E
:0A08D0008FA0D29012082FC29222CE
:08082F00C291D2927F017E000C
:10083700E4FDFCC3ED9FEC9E50070DBD00010C804D
:0F084700F2E4FFFE0FBF00010EBE01F8BFF4F593
:01085600227F
:10087C00BB010689828A83E0225002E722BBFE027A
:09088C00E32289828A83E49322AD
:00000001FF
