:0300000002087380
:0C087300787FE4F6D8FD758107020800CC
:0E084800E4FFFE0FBF00010EBE2EF8BFE0F56C
:01085600227F
:10080000E4F5A07F381208571208487F01120857F4
:100810001208487F101208571208487F0C12085718
:100820001208481208487F451208651208487F459B
:100830001208651208487F541208651208487F4361
:0808400012086512084880BB94
:0E0857008FA0C290C291D292120848C2922283
:0E0865008FA0D290C291D292120848C2922265
:00000001FF
